:100000000C945D000C9485000C9485000C94850084
:100010000C9485000C9485000C9485000C9485004C
:100020000C9485000C9485000C9485000C9485003C
:100030000C9485000C9485000C9485000C9485002C
:100040000C9409040C9485000C9485000C94850094
:100050000C9485000C9485000C9485000C9485000C
:100060000C9485000C94850000000008000201003B
:100070000003040700000000000000000000000072
:10008000250028002B0000000000240027002A0083
:10009000040404040404040402020202020203032E
:1000A0000303030301020408102040800102040836
:1000B0001020010204081020CE0511241FBECFEF2E
:1000C000D8E0DEBFCDBF11E0A0E0B1E0E8E1F1E1B2
:1000D00002C005900D92AE35B107D9F721E0AEE52B
:1000E000B1E001C01D92AF37B207E1F710E0CDE5F6
:1000F000D0E004C02197FE010E948408CC35D107CE
:10010000C9F70E9453040C948A080C94000090E0F4
:10011000FC01EC55FF4F249180579F4FFC018491C7
:10012000882399F090E0880F991FFC01EA57FF4F50
:10013000A591B491FC01E458FF4F859194918FB73C
:10014000F894EC91E22BEC938FBF0895AF92BF929D
:10015000CF92DF92EF92FF920F931F93CF93DF9393
:100160006C017B018B01040F151FEB015E01AE18C2
:10017000BF08C017D10759F06991D601ED91FC91E4
:100180000190F081E02DC6010995892B79F7C50111
:10019000DF91CF911F910F91FF90EF90DF90CF9063
:1001A000BF90AF90089590E0FC01E859FF4F249173
:1001B000FC01EC55FF4F3491FC01E057FF4FE491F7
:1001C000EE23C9F0222339F0233001F1A8F42130C5
:1001D00019F1223029F1F0E0EE0FFF1FE458FF4F34
:1001E000A591B4918FB7F894EC91611126C0309528
:1001F0003E233C938FBF08952730A9F02830C9F0E3
:10020000243049F7809180008F7D03C08091800069
:100210008F7780938000DFCF84B58F7784BDDBCF6D
:1002200084B58F7DFBCF8091B0008F778093B00035
:10023000D2CF8091B0008F7DF9CF3E2BDACF8E30B8
:1002400008F08E508770806480937C0080917A00E3
:10025000806480937A0080917A0086FDFCCF809143
:1002600078009091790008953FB7F89480916301E8
:1002700090916401A0916501B091660126B5A89B9B
:1002800005C02F3F19F00196A11DB11D3FBFBA2F28
:10029000A92F982F8827BC01CD01620F711D811DE8
:1002A000911D42E0660F771F881F991F4A95D1F76D
:1002B0000895089590E080E00895FC0101900020E9
:1002C000E9F73197AF01481B590BBC0187E691E074
:1002D0000C94A6008F929F92AF92BF920F931F93A0
:1002E000CF93DF93CDB7DEB7A1970FB6F894DEBFFB
:1002F0000FBECDBF19A2423008F44AE08E010F5D57
:100300001F4F842E912CB12CA12CA50194010E9489
:100310001706E62FB901CA01EA30F4F4E05DD8010E
:10032000EE938D01232B242B252B79F790E080E091
:10033000109719F0CD010E945D01A1960FB6F894B7
:10034000DEBF0FBECDBFDF91CF911F910F91BF9048
:10035000AF909F908F900895E95CE1CF0C945D0180
:10036000CF93DF93EC0160E08E810E94D30061E0C7
:100370008E810E94D30060E08E810E94D3008BE8C2
:1003800091E00197F1F7DF91CF910895CF92DF923D
:10039000EF92FF920F931F93CF93DF936C017C0139
:1003A00087E0E80EF11CD0E0C0E0062F10E0B801B5
:1003B0000C2E02C0759567950A94E2F76170F701FB
:1003C00081917F010E94D3002196C430D10579F735
:1003D000C601DF91CF911F910F91FF90EF90DF90B9
:1003E000CF900C94B001CF92DF92EF92FF920F93D7
:1003F0001F93CF93DF93EC01F62E642F8C810E9424
:10040000D3008D818F3F19F060E00E94D3000F2D43
:1004100010E08F8584FF25C06E0187E0C80ED11CD7
:10042000F12CE12CB8010E2C02C0759567950A9449
:10043000E2F76170F60181916F010E94D300FFEF36
:10044000EF1AFF0A88E0E816F10461F7CE01DF91A8
:10045000CF911F910F91FF90EF90DF90CF900C9470
:10046000B001B80184E0759567958A95E1F7CE01F2
:100470000E94C6016F2DCE01DF91CF911F910F9188
:10048000FF90EF90DF90CF900C94C60140E0682F72
:1004900087E691E00C94F301CF93DF93613029F06C
:1004A0009091760198609093760160937A01109212
:1004B0007B0190E490937C0180937D01805C80932C
:1004C0007E0180916B010E94870080916C018F3FBB
:1004D00011F00E94870080916D010E948700C7E69D
:1004E000D1E09E01275631408091760184FD0AC0FB
:1004F00084E090E02196281739073CF48E810E9411
:100500008700EFCF88E090E0F5CF8BE39DE0019787
:10051000F1F760E080916B010E94D30060E0809170
:100520006D010E94D30080916C018F3F19F060E053
:100530000E94D3008091760184FD39C063E087E694
:1005400091E00E94C601CBE4D6E4CE010197F1F719
:1005500063E087E691E00E94C6012197F1F763E02E
:1005600087E691E00E94C60183E592E00197F1F7EA
:1005700062E087E691E00E94C60180917601806288
:100580000E94460284E0809377018CE00E9446023C
:1005900081E00E9446028BE39FE10197F1F782E040
:1005A0008093780186E0DF91CF910C9446028062BF
:1005B0000E9446028BE496E40197F1F78091760160
:1005C00080620E94460283E592E00197F1F78091F4
:1005D000760180620E944602D0CF90917A0169171D
:1005E00010F06FEF690FE62FF0E0E959FE4F9489A4
:1005F000890F80680C94460241E00E94F30181E07B
:1006000090E008954F925F926F927F928F929F92A7
:10061000AF92BF92CF92DF92EF92FF920F931F9310
:10062000CF936B017C01742EAC019B010E947F086B
:10063000882399F08CE091E0CF911F910F91FF906A
:10064000EF90DF90CF90BF90AF909F908F907F9072
:100650006F905F904F900C945D0146015701E894B4
:10066000B7F82FEF3FEF4FE75FE7C501B4010E94F6
:100670007F0881110DC02FEF3FEF4FE75FE7C50106
:10068000B4010E94B50618161CF480E191E0D4CFA5
:100690002FEF3FEF4FE75FE4C701B6010E940D085F
:1006A00018161CF484E191E0C7CF2FEF3FEF4FE71E
:1006B0005FECC701B6010E94B50687FDF3CF20E0CD
:1006C00030E0A901C701B6010E94B50610E000E0C4
:1006D00087FF0CC041E06DE287E691E00E94F301E4
:1006E000F7FAF094F7F8F09401E010E0C0E060E071
:1006F00070E080E09FE37C1641F020E030E040E2D3
:1007000051E40E94BA06CF5FF6CFA70196010E947E
:1007100049064B015C010E942C072B013C014AE079
:100720000E946A01080F191FCC23C9F1C301B2014D
:100730000E945B079B01AC01C501B4010E94480601
:100740004B015C0141E06EE287E691E00E94F3011B
:100750000F5F1F4FC15018F120E030E040E251E43C
:10076000C501B4010E9412082B013C010E942C0714
:100770004B01B12CA12C4AE0C501B4010E946A01D1
:10078000080F191FC501B4010E945B079B01AC0152
:10079000C301B2010E9448064B015C01DBCFC801D6
:1007A000CF911F910F91FF90EF90DF90CF90BF906E
:1007B000AF909F908F907F906F905F904F90089533
:1007C000CF92DF92EF92FF926C01990FEE08FF0833
:1007D000F7FE16C041E06DE287E691E00E94F3016A
:1007E00066277727CB016C197D098E099F094AE09E
:1007F0000E946A010196FF90EF90DF90CF900895DC
:100800004AE0C701B601FF90EF90DF90CF900C94C3
:100810006A011F920F920FB60F9211242F933F93EC
:100820008F939F93AF93BF9380915F0190916001ED
:10083000A0916101B091620130915E0123E0230F2C
:100840002D3758F50196A11DB11D20935E018093AF
:100850005F0190936001A0936101B0936201809168
:10086000630190916401A0916501B09166010196C8
:10087000A11DB11D8093630190936401A093650154
:10088000B0936601BF91AF919F918F913F912F914E
:100890000F900FBE0F901F90189526E8230F029619
:1008A000A11DB11DD2CF789484B5826084BD84B57A
:1008B000816084BD85B5826085BD85B5816085BD5B
:1008C00080916E00816080936E0010928100809113
:1008D000810082608093810080918100816080939B
:1008E0008100809180008160809380008091B100C0
:1008F00084608093B1008091B00081608093B000EB
:1009000080917A00846080937A0080917A0082607E
:1009100080937A0080917A00816080937A00809140
:100920007A00806880937A001092C10087E00E946C
:10093000870060E087E00E94D30084E00E94870087
:1009400060E084E00E94D30083E00E94870060E0C2
:1009500083E00E94D30064E084E10E944C0298E1AD
:10096000492E9CEF592E66246A94762C2BE3222E76
:100970002FE1322E00E010E08EE00E941F019C016A
:10098000990F440B550B2B5F334041095109A4E6E5
:10099000B0E00E940C06A30192010E94ED054901FE
:1009A000E9018FE00E941F01BC01990F880B990B90
:1009B0000E945D0720E030E44CE955E40E941208F3
:1009C00020E030E040E256E40E94BA066B017C0170
:1009D00060E080E00E94ED0288E191E00E94AE01BB
:1009E00061E080E00E94ED028DE291E00E94AE01A4
:1009F00062E080E00E94ED028DE391E00E94AE0192
:100A000063E082E00E94ED028BE491E00E94AE017F
:100A1000C634D1050CF45EC061E080E10E94ED02B5
:100A2000C4010E94E00382E591E00E94AE0162E011
:100A30008DE00E94ED0242E0C701B6010E94020370
:100A400084E591E00E94AE0163E08AE00E94ED023D
:100A500087E591E00E94AE0160E087E00E94D3004C
:100A600060E083E00E94D30060E084E00E94D30055
:100A70000E9434014B015C0188E8C82E83E1D82E26
:100A8000E12CF12C0E943401681979098A099B092B
:100A9000683E734081059105A8F321E0C21AD10890
:100AA000E108F10888EE880E83E0981EA11CB11CB5
:100AB000C114D104E104F10429F781E00E94460247
:100AC000C1010197F1F70115110509F455CF0E94F5
:100AD000000052CF20E030E040E252E4C701B6010E
:100AE0000E94B50687FF26C061E080E10E94ED020A
:100AF000C4010E94E00382E591E00E94AE0162E041
:100B00008DE00E94ED0242E0C701B6010E9402039F
:100B100084E591E00E94AE0163E08AE00E94ED026C
:100B20008BE591E00E94AE0161E087E00E94D30076
:100B300061E097CF20E030E040E252E4C701B60127
:100B40000E940D0887FD94CF61E080E10E94ED02D4
:100B5000C4010E94E00382E591E00E94AE0162E0E0
:100B60008DE00E94ED0242E0C701B6010E9402033F
:100B700084E591E00E94AE0163E08AE00E94ED020C
:100B800087E591E00E94AE0160E087E00E94D3001B
:100B900060E083E00E94D30061E067CFE7E6F1E028
:100BA0001382128284E091E09183808385E08483C4
:100BB0008FEF858386E0868388E0878389E080875E
:100BC0008AE081878BE082871386148615861686D5
:100BD000178661E080E10C944C02052E97FB1EF411
:100BE00000940E94040657FD07D00E94170607FCD8
:100BF00003D04EF40C940406509540953095219501
:100C00003F4F4F4F5F4F0895909580957095619538
:100C10007F4F8F4F9F4F08950E943906A59F900DDB
:100C2000B49F900DA49F800D911D11240895A1E201
:100C30001A2EAA1BBB1BFD010DC0AA1FBB1FEE1F56
:100C4000FF1FA217B307E407F50720F0A21BB30BA1
:100C5000E40BF50B661F771F881F991F1A9469F71D
:100C600060957095809590959B01AC01BD01CF0179
:100C70000895A29FB001B39FC001A39F700D811D75
:100C80001124911DB29F700D811D1124911D089595
:100C90005058BB27AA270E9460060C94D3070E94D5
:100CA000C50738F00E94CC0720F039F49F3F19F4B3
:100CB00026F40C94C2070EF4E095E7FB0C94BC07F5
:100CC000E92F0E94E40758F3BA17620773078407F5
:100CD000950720F079F4A6F50C9406080EF4E0953B
:100CE0000B2EBA2FA02D0B01B90190010C01CA01E6
:100CF000A0011124FF27591B99F0593F50F4503E91
:100D000068F11A16F040A22F232F342F4427585F82
:100D1000F3CF469537952795A795F0405395C9F79A
:100D20007EF41F16BA0B620B730B840BBAF0915052
:100D3000A1F0FF0FBB1F661F771F881FC2F70EC0F1
:100D4000BA0F621F731F841F48F4879577956795C4
:100D5000B795F7959E3F08F0B0CF9395880F08F0B0
:100D60009927EE0F9795879508950E94980708F4A4
:100D700081E008950E94CE060C94D3070E94CC0710
:100D800058F00E94C50740F029F45F3F29F00C9409
:100D9000BC0751110C9407080C94C2070E94E40789
:100DA00068F39923B1F3552391F3951B550BBB279A
:100DB000AA2762177307840738F09F5F5F4F220FDF
:100DC000331F441FAA1FA9F335D00E2E3AF0E0E8D6
:100DD00032D091505040E695001CCAF72BD0FE2F20
:100DE00029D0660F771F881FBB1F261737074807B4
:100DF000AB07B0E809F0BB0B802DBF01FF2793586C
:100E00005F4F3AF09E3F510578F00C94BC070C946C
:100E100007085F3FE4F3983ED4F38695779567958E
:100E2000B795F7959F5FC9F7880F911D96958795A0
:100E300097F90895E1E0660F771F881FBB1F6217BF
:100E400073078407BA0720F0621B730B840BBA0B7D
:100E5000EE1F88F7E09508950E94EC0788F09F57F1
:100E600098F0B92F9927B751B0F0E1F0660F771FCE
:100E7000881F991F1AF0BA95C9F714C0B13091F0C4
:100E80000E940608B1E008950C940608672F782F99
:100E90008827B85F39F0B93FCCF386957795679589
:100EA000B395D9F73EF490958095709561957F4FF5
:100EB0008F4F9F4F0895E89409C097FB3EF490959B
:100EC0008095709561957F4F8F4F9F4F9923A9F023
:100ED000F92F96E9BB279395F695879577956795B2
:100EE000B795F111F8CFFAF4BB0F11F460FF1BC0F6
:100EF0006F5F7F4F8F4F9F4F16C0882311F096E989
:100F000011C0772321F09EE8872F762F05C0662336
:100F100071F096E8862F70E060E02AF09A95660FEF
:100F2000771F881FDAF7880F9695879597F90895A8
:100F3000990F0008550FAA0BE0E8FEEF16161706EA
:100F4000E807F907C0F012161306E407F50798F052
:100F5000621B730B840B950B39F40A2661F0232B6B
:100F6000242B252B21F408950A2609F4A140A695E7
:100F70008FEF811D811D089597F99F6780E870E0CC
:100F800060E008959FEF80EC089500240A941616FF
:100F9000170618060906089500240A941216130667
:100FA000140605060895092E0394000C11F48823F5
:100FB00052F0BB0F40F4BF2B11F460FF04C06F5F11
:100FC0007F4F8F4F9F4F089557FD9058440F551FE7
:100FD00059F05F3F71F04795880F97FB991F61F0BB
:100FE0009F3F79F087950895121613061406551F32
:100FF000F2CF4695F1DF08C0161617061806991F9E
:10100000F1CF86957105610508940895E894BB2792
:1010100066277727CB0197F908950E94980708F46F
:101020008FEF08950E9425080C94D3070E94C507EE
:1010300038F00E94CC0720F0952311F00C94BC07E7
:101040000C94C20711240C9407080E94E40770F363
:10105000959FC1F3950F50E0551F629FF001729F5D
:10106000BB27F00DB11D639FAA27F00DB11DAA1F6C
:10107000649F6627B00DA11D661F829F2227B00DB9
:10108000A11D621F739FB00DA11D621F839FA00D44
:10109000611D221F749F3327A00D611D231F849F94
:1010A000600D211D822F762F6A2F11249F575040EB
:1010B0009AF0F1F088234AF0EE0FFF1FBB1F661F66
:1010C000771F881F91505040A9F79E3F510580F02F
:1010D0000C94BC070C9407085F3FE4F3983ED4F3EC
:1010E000869577956795B795F795E7959F5FC1F7D3
:1010F000FE2B880F911D9695879597F908950E946C
:101100009807880B990B0895EE0FFF1F0590F49137
:08111000E02D0994F894FFCFD3
:1011180000000000FC02A6005A0159016E616E0031
:10112800696E66006F7666002D2D534D415254202E
:1011380049525249474154494F4E2D2D004D4F4970
:101148005354555245204C4556454C3A0054454D4C
:1011580050455241545552453A200050414D503A5D
:0E116800200025002043004F4646004F4E0059
:00000001FF
